{
	"contracts/error_handling.sol": {
		"Error": {
			"abi": [
				{
					"inputs": [],
					"name": "balance",
					"outputs": [
						{
							"internalType": "int256",
							"name": "",
							"type": "int256"
						}
					],
					"stateMutability": "view",
					"type": "function"
				},
				{
					"inputs": [],
					"name": "checkBalanceInvariant",
					"outputs": [
						{
							"internalType": "int256",
							"name": "",
							"type": "int256"
						}
					],
					"stateMutability": "view",
					"type": "function"
				},
				{
					"inputs": [
						{
							"internalType": "int256",
							"name": "amount",
							"type": "int256"
						}
					],
					"name": "deposit",
					"outputs": [
						{
							"internalType": "int256",
							"name": "",
							"type": "int256"
						}
					],
					"stateMutability": "nonpayable",
					"type": "function"
				},
				{
					"inputs": [
						{
							"internalType": "int256",
							"name": "amount",
							"type": "int256"
						}
					],
					"name": "withdraw",
					"outputs": [
						{
							"internalType": "int256",
							"name": "",
							"type": "int256"
						}
					],
					"stateMutability": "nonpayable",
					"type": "function"
				}
			],
			"devdoc": {
				"kind": "dev",
				"methods": {},
				"version": 1
			},
			"evm": {
				"assembly": "    /* \"contracts/error_handling.sol\":153:832  contract Error {... */\n  mstore(0x40, 0x80)\n    /* \"contracts/error_handling.sol\":194:195  0 */\n  0x00\n    /* \"contracts/error_handling.sol\":175:195  int public balance=0 */\n  dup1\n  sstore\n    /* \"contracts/error_handling.sol\":153:832  contract Error {... */\n  callvalue\n  dup1\n  iszero\n  tag_1\n  jumpi\n  0x00\n  dup1\n  revert\ntag_1:\n  pop\n  dataSize(sub_0)\n  dup1\n  dataOffset(sub_0)\n  0x00\n  codecopy\n  0x00\n  return\nstop\n\nsub_0: assembly {\n        /* \"contracts/error_handling.sol\":153:832  contract Error {... */\n      mstore(0x40, 0x80)\n      callvalue\n      dup1\n      iszero\n      tag_1\n      jumpi\n      0x00\n      dup1\n      revert\n    tag_1:\n      pop\n      jumpi(tag_2, lt(calldatasize, 0x04))\n      shr(0xe0, calldataload(0x00))\n      dup1\n      0x7e62eab8\n      eq\n      tag_3\n      jumpi\n      dup1\n      0xb69ef8a8\n      eq\n      tag_4\n      jumpi\n      dup1\n      0xee6abcd5\n      eq\n      tag_5\n      jumpi\n      dup1\n      0xf04991f0\n      eq\n      tag_6\n      jumpi\n    tag_2:\n      0x00\n      dup1\n      revert\n        /* \"contracts/error_handling.sol\":389:618  function withdraw(int amount) public returns(int){... */\n    tag_3:\n      tag_7\n      0x04\n      dup1\n      calldatasize\n      sub\n      dup2\n      add\n      swap1\n      tag_8\n      swap2\n      swap1\n      tag_9\n      jump\t// in\n    tag_8:\n      tag_10\n      jump\t// in\n    tag_7:\n      mload(0x40)\n      tag_11\n      swap2\n      swap1\n      tag_12\n      jump\t// in\n    tag_11:\n      mload(0x40)\n      dup1\n      swap2\n      sub\n      swap1\n      return\n        /* \"contracts/error_handling.sol\":175:195  int public balance=0 */\n    tag_4:\n      tag_13\n      tag_14\n      jump\t// in\n    tag_13:\n      mload(0x40)\n      tag_15\n      swap2\n      swap1\n      tag_12\n      jump\t// in\n    tag_15:\n      mload(0x40)\n      dup1\n      swap2\n      sub\n      swap1\n      return\n        /* \"contracts/error_handling.sol\":630:824  function checkBalanceInvariant() public view returns(int){... */\n    tag_5:\n      tag_16\n      tag_17\n      jump\t// in\n    tag_16:\n      mload(0x40)\n      tag_18\n      swap2\n      swap1\n      tag_12\n      jump\t// in\n    tag_18:\n      mload(0x40)\n      dup1\n      swap2\n      sub\n      swap1\n      return\n        /* \"contracts/error_handling.sol\":202:381  function deposit(int amount) public returns(int) {... */\n    tag_6:\n      tag_19\n      0x04\n      dup1\n      calldatasize\n      sub\n      dup2\n      add\n      swap1\n      tag_20\n      swap2\n      swap1\n      tag_9\n      jump\t// in\n    tag_20:\n      tag_21\n      jump\t// in\n    tag_19:\n      mload(0x40)\n      tag_22\n      swap2\n      swap1\n      tag_12\n      jump\t// in\n    tag_22:\n      mload(0x40)\n      dup1\n      swap2\n      sub\n      swap1\n      return\n        /* \"contracts/error_handling.sol\":389:618  function withdraw(int amount) public returns(int){... */\n    tag_10:\n        /* \"contracts/error_handling.sol\":434:437  int */\n      0x00\n        /* \"contracts/error_handling.sol\":461:467  amount */\n      dup2\n        /* \"contracts/error_handling.sol\":453:460  balance */\n      sload(0x00)\n        /* \"contracts/error_handling.sol\":453:467  balance<amount */\n      slt\n        /* \"contracts/error_handling.sol\":449:611  if (balance<amount) {... */\n      iszero\n      tag_24\n      jumpi\n        /* \"contracts/error_handling.sol\":484:514  revert(\"Insufficient balance\") */\n      mload(0x40)\n      0x08c379a000000000000000000000000000000000000000000000000000000000\n      dup2\n      mstore\n      0x04\n      add\n      tag_25\n      swap1\n      tag_26\n      jump\t// in\n    tag_25:\n      mload(0x40)\n      dup1\n      swap2\n      sub\n      swap1\n      revert\n        /* \"contracts/error_handling.sol\":449:611  if (balance<amount) {... */\n    tag_24:\n        /* \"contracts/error_handling.sol\":565:571  amount */\n      dup2\n        /* \"contracts/error_handling.sol\":554:561  balance */\n      0x00\n      dup1\n        /* \"contracts/error_handling.sol\":554:571  balance -= amount */\n      dup3\n      dup3\n      sload\n      tag_28\n      swap2\n      swap1\n      tag_29\n      jump\t// in\n    tag_28:\n      swap3\n      pop\n      pop\n      dup2\n      swap1\n      sstore\n      pop\n        /* \"contracts/error_handling.sol\":592:599  balance */\n      sload(0x00)\n        /* \"contracts/error_handling.sol\":585:599  return balance */\n      swap1\n      pop\n        /* \"contracts/error_handling.sol\":389:618  function withdraw(int amount) public returns(int){... */\n      swap2\n      swap1\n      pop\n      jump\t// out\n        /* \"contracts/error_handling.sol\":175:195  int public balance=0 */\n    tag_14:\n      sload(0x00)\n      dup2\n      jump\t// out\n        /* \"contracts/error_handling.sol\":630:824  function checkBalanceInvariant() public view returns(int){... */\n    tag_17:\n        /* \"contracts/error_handling.sol\":683:686  int */\n      0x00\n        /* \"contracts/error_handling.sol\":789:790  0 */\n      dup1\n        /* \"contracts/error_handling.sol\":778:785  balance */\n      sload(0x00)\n        /* \"contracts/error_handling.sol\":778:790  balance >= 0 */\n      slt\n      iszero\n        /* \"contracts/error_handling.sol\":771:791  assert(balance >= 0) */\n      tag_31\n      jumpi\n      tag_32\n      tag_33\n      jump\t// in\n    tag_32:\n    tag_31:\n        /* \"contracts/error_handling.sol\":809:816  balance */\n      sload(0x00)\n        /* \"contracts/error_handling.sol\":802:816  return balance */\n      swap1\n      pop\n        /* \"contracts/error_handling.sol\":630:824  function checkBalanceInvariant() public view returns(int){... */\n      swap1\n      jump\t// out\n        /* \"contracts/error_handling.sol\":202:381  function deposit(int amount) public returns(int) {... */\n    tag_21:\n        /* \"contracts/error_handling.sol\":246:249  int */\n      0x00\n        /* \"contracts/error_handling.sol\":279:281  10 */\n      0x0a\n        /* \"contracts/error_handling.sol\":270:276  amount */\n      dup3\n        /* \"contracts/error_handling.sol\":270:281  amount > 10 */\n      sgt\n        /* \"contracts/error_handling.sol\":262:321  require(amount > 10, \"You have to deposit at least 10 wei\") */\n      tag_35\n      jumpi\n      mload(0x40)\n      0x08c379a000000000000000000000000000000000000000000000000000000000\n      dup2\n      mstore\n      0x04\n      add\n      tag_36\n      swap1\n      tag_37\n      jump\t// in\n    tag_36:\n      mload(0x40)\n      dup1\n      swap2\n      sub\n      swap1\n      revert\n    tag_35:\n        /* \"contracts/error_handling.sol\":342:348  amount */\n      dup2\n        /* \"contracts/error_handling.sol\":332:339  balance */\n      0x00\n      dup1\n        /* \"contracts/error_handling.sol\":332:348  balance +=amount */\n      dup3\n      dup3\n      sload\n      tag_38\n      swap2\n      swap1\n      tag_39\n      jump\t// in\n    tag_38:\n      swap3\n      pop\n      pop\n      dup2\n      swap1\n      sstore\n      pop\n        /* \"contracts/error_handling.sol\":366:373  balance */\n      sload(0x00)\n        /* \"contracts/error_handling.sol\":359:373  return balance */\n      swap1\n      pop\n        /* \"contracts/error_handling.sol\":202:381  function deposit(int amount) public returns(int) {... */\n      swap2\n      swap1\n      pop\n      jump\t// out\n        /* \"#utility.yul\":88:205   */\n    tag_41:\n        /* \"#utility.yul\":197:198   */\n      0x00\n        /* \"#utility.yul\":194:195   */\n      dup1\n        /* \"#utility.yul\":187:199   */\n      revert\n        /* \"#utility.yul\":334:410   */\n    tag_43:\n        /* \"#utility.yul\":370:377   */\n      0x00\n        /* \"#utility.yul\":399:404   */\n      dup2\n        /* \"#utility.yul\":388:404   */\n      swap1\n      pop\n        /* \"#utility.yul\":334:410   */\n      swap2\n      swap1\n      pop\n      jump\t// out\n        /* \"#utility.yul\":416:536   */\n    tag_44:\n        /* \"#utility.yul\":488:511   */\n      tag_59\n        /* \"#utility.yul\":505:510   */\n      dup2\n        /* \"#utility.yul\":488:511   */\n      tag_43\n      jump\t// in\n    tag_59:\n        /* \"#utility.yul\":481:486   */\n      dup2\n        /* \"#utility.yul\":478:512   */\n      eq\n        /* \"#utility.yul\":468:530   */\n      tag_60\n      jumpi\n        /* \"#utility.yul\":526:527   */\n      0x00\n        /* \"#utility.yul\":523:524   */\n      dup1\n        /* \"#utility.yul\":516:528   */\n      revert\n        /* \"#utility.yul\":468:530   */\n    tag_60:\n        /* \"#utility.yul\":416:536   */\n      pop\n      jump\t// out\n        /* \"#utility.yul\":542:679   */\n    tag_45:\n        /* \"#utility.yul\":587:592   */\n      0x00\n        /* \"#utility.yul\":625:631   */\n      dup2\n        /* \"#utility.yul\":612:632   */\n      calldataload\n        /* \"#utility.yul\":603:632   */\n      swap1\n      pop\n        /* \"#utility.yul\":641:673   */\n      tag_62\n        /* \"#utility.yul\":667:672   */\n      dup2\n        /* \"#utility.yul\":641:673   */\n      tag_44\n      jump\t// in\n    tag_62:\n        /* \"#utility.yul\":542:679   */\n      swap3\n      swap2\n      pop\n      pop\n      jump\t// out\n        /* \"#utility.yul\":685:1012   */\n    tag_9:\n        /* \"#utility.yul\":743:749   */\n      0x00\n        /* \"#utility.yul\":792:794   */\n      0x20\n        /* \"#utility.yul\":780:789   */\n      dup3\n        /* \"#utility.yul\":771:778   */\n      dup5\n        /* \"#utility.yul\":767:790   */\n      sub\n        /* \"#utility.yul\":763:795   */\n      slt\n        /* \"#utility.yul\":760:879   */\n      iszero\n      tag_64\n      jumpi\n        /* \"#utility.yul\":798:877   */\n      tag_65\n      tag_41\n      jump\t// in\n    tag_65:\n        /* \"#utility.yul\":760:879   */\n    tag_64:\n        /* \"#utility.yul\":918:919   */\n      0x00\n        /* \"#utility.yul\":943:995   */\n      tag_66\n        /* \"#utility.yul\":987:994   */\n      dup5\n        /* \"#utility.yul\":978:984   */\n      dup3\n        /* \"#utility.yul\":967:976   */\n      dup6\n        /* \"#utility.yul\":963:985   */\n      add\n        /* \"#utility.yul\":943:995   */\n      tag_45\n      jump\t// in\n    tag_66:\n        /* \"#utility.yul\":933:995   */\n      swap2\n      pop\n        /* \"#utility.yul\":889:1005   */\n      pop\n        /* \"#utility.yul\":685:1012   */\n      swap3\n      swap2\n      pop\n      pop\n      jump\t// out\n        /* \"#utility.yul\":1018:1133   */\n    tag_46:\n        /* \"#utility.yul\":1103:1126   */\n      tag_68\n        /* \"#utility.yul\":1120:1125   */\n      dup2\n        /* \"#utility.yul\":1103:1126   */\n      tag_43\n      jump\t// in\n    tag_68:\n        /* \"#utility.yul\":1098:1101   */\n      dup3\n        /* \"#utility.yul\":1091:1127   */\n      mstore\n        /* \"#utility.yul\":1018:1133   */\n      pop\n      pop\n      jump\t// out\n        /* \"#utility.yul\":1139:1357   */\n    tag_12:\n        /* \"#utility.yul\":1230:1234   */\n      0x00\n        /* \"#utility.yul\":1268:1270   */\n      0x20\n        /* \"#utility.yul\":1257:1266   */\n      dup3\n        /* \"#utility.yul\":1253:1271   */\n      add\n        /* \"#utility.yul\":1245:1271   */\n      swap1\n      pop\n        /* \"#utility.yul\":1281:1350   */\n      tag_70\n        /* \"#utility.yul\":1347:1348   */\n      0x00\n        /* \"#utility.yul\":1336:1345   */\n      dup4\n        /* \"#utility.yul\":1332:1349   */\n      add\n        /* \"#utility.yul\":1323:1329   */\n      dup5\n        /* \"#utility.yul\":1281:1350   */\n      tag_46\n      jump\t// in\n    tag_70:\n        /* \"#utility.yul\":1139:1357   */\n      swap3\n      swap2\n      pop\n      pop\n      jump\t// out\n        /* \"#utility.yul\":1363:1532   */\n    tag_47:\n        /* \"#utility.yul\":1447:1458   */\n      0x00\n        /* \"#utility.yul\":1481:1487   */\n      dup3\n        /* \"#utility.yul\":1476:1479   */\n      dup3\n        /* \"#utility.yul\":1469:1488   */\n      mstore\n        /* \"#utility.yul\":1521:1525   */\n      0x20\n        /* \"#utility.yul\":1516:1519   */\n      dup3\n        /* \"#utility.yul\":1512:1526   */\n      add\n        /* \"#utility.yul\":1497:1526   */\n      swap1\n      pop\n        /* \"#utility.yul\":1363:1532   */\n      swap3\n      swap2\n      pop\n      pop\n      jump\t// out\n        /* \"#utility.yul\":1538:1708   */\n    tag_48:\n        /* \"#utility.yul\":1678:1700   */\n      0x496e73756666696369656e742062616c616e6365000000000000000000000000\n        /* \"#utility.yul\":1674:1675   */\n      0x00\n        /* \"#utility.yul\":1666:1672   */\n      dup3\n        /* \"#utility.yul\":1662:1676   */\n      add\n        /* \"#utility.yul\":1655:1701   */\n      mstore\n        /* \"#utility.yul\":1538:1708   */\n      pop\n      jump\t// out\n        /* \"#utility.yul\":1714:2080   */\n    tag_49:\n        /* \"#utility.yul\":1856:1859   */\n      0x00\n        /* \"#utility.yul\":1877:1944   */\n      tag_74\n        /* \"#utility.yul\":1941:1943   */\n      0x14\n        /* \"#utility.yul\":1936:1939   */\n      dup4\n        /* \"#utility.yul\":1877:1944   */\n      tag_47\n      jump\t// in\n    tag_74:\n        /* \"#utility.yul\":1870:1944   */\n      swap2\n      pop\n        /* \"#utility.yul\":1953:2046   */\n      tag_75\n        /* \"#utility.yul\":2042:2045   */\n      dup3\n        /* \"#utility.yul\":1953:2046   */\n      tag_48\n      jump\t// in\n    tag_75:\n        /* \"#utility.yul\":2071:2073   */\n      0x20\n        /* \"#utility.yul\":2066:2069   */\n      dup3\n        /* \"#utility.yul\":2062:2074   */\n      add\n        /* \"#utility.yul\":2055:2074   */\n      swap1\n      pop\n        /* \"#utility.yul\":1714:2080   */\n      swap2\n      swap1\n      pop\n      jump\t// out\n        /* \"#utility.yul\":2086:2505   */\n    tag_26:\n        /* \"#utility.yul\":2252:2256   */\n      0x00\n        /* \"#utility.yul\":2290:2292   */\n      0x20\n        /* \"#utility.yul\":2279:2288   */\n      dup3\n        /* \"#utility.yul\":2275:2293   */\n      add\n        /* \"#utility.yul\":2267:2293   */\n      swap1\n      pop\n        /* \"#utility.yul\":2339:2348   */\n      dup2\n        /* \"#utility.yul\":2333:2337   */\n      dup2\n        /* \"#utility.yul\":2329:2349   */\n      sub\n        /* \"#utility.yul\":2325:2326   */\n      0x00\n        /* \"#utility.yul\":2314:2323   */\n      dup4\n        /* \"#utility.yul\":2310:2327   */\n      add\n        /* \"#utility.yul\":2303:2350   */\n      mstore\n        /* \"#utility.yul\":2367:2498   */\n      tag_77\n        /* \"#utility.yul\":2493:2497   */\n      dup2\n        /* \"#utility.yul\":2367:2498   */\n      tag_49\n      jump\t// in\n    tag_77:\n        /* \"#utility.yul\":2359:2498   */\n      swap1\n      pop\n        /* \"#utility.yul\":2086:2505   */\n      swap2\n      swap1\n      pop\n      jump\t// out\n        /* \"#utility.yul\":2511:2691   */\n    tag_50:\n        /* \"#utility.yul\":2559:2636   */\n      0x4e487b7100000000000000000000000000000000000000000000000000000000\n        /* \"#utility.yul\":2556:2557   */\n      0x00\n        /* \"#utility.yul\":2549:2637   */\n      mstore\n        /* \"#utility.yul\":2656:2660   */\n      0x11\n        /* \"#utility.yul\":2653:2654   */\n      0x04\n        /* \"#utility.yul\":2646:2661   */\n      mstore\n        /* \"#utility.yul\":2680:2684   */\n      0x24\n        /* \"#utility.yul\":2677:2678   */\n      0x00\n        /* \"#utility.yul\":2670:2685   */\n      revert\n        /* \"#utility.yul\":2697:3224   */\n    tag_29:\n        /* \"#utility.yul\":2736:2740   */\n      0x00\n        /* \"#utility.yul\":2756:2775   */\n      tag_80\n        /* \"#utility.yul\":2773:2774   */\n      dup3\n        /* \"#utility.yul\":2756:2775   */\n      tag_43\n      jump\t// in\n    tag_80:\n        /* \"#utility.yul\":2751:2775   */\n      swap2\n      pop\n        /* \"#utility.yul\":2789:2808   */\n      tag_81\n        /* \"#utility.yul\":2806:2807   */\n      dup4\n        /* \"#utility.yul\":2789:2808   */\n      tag_43\n      jump\t// in\n    tag_81:\n        /* \"#utility.yul\":2784:2808   */\n      swap3\n      pop\n        /* \"#utility.yul\":2978:2979   */\n      dup3\n        /* \"#utility.yul\":2910:2976   */\n      0x8000000000000000000000000000000000000000000000000000000000000000\n        /* \"#utility.yul\":2906:2980   */\n      add\n        /* \"#utility.yul\":2903:2904   */\n      dup3\n        /* \"#utility.yul\":2899:2981   */\n      slt\n        /* \"#utility.yul\":2894:2895   */\n      0x00\n        /* \"#utility.yul\":2891:2892   */\n      dup5\n        /* \"#utility.yul\":2887:2896   */\n      slt\n        /* \"#utility.yul\":2880:2897   */\n      iszero\n        /* \"#utility.yul\":2876:2982   */\n      and\n        /* \"#utility.yul\":2873:3005   */\n      iszero\n      tag_82\n      jumpi\n        /* \"#utility.yul\":2985:3003   */\n      tag_83\n      tag_50\n      jump\t// in\n    tag_83:\n        /* \"#utility.yul\":2873:3005   */\n    tag_82:\n        /* \"#utility.yul\":3164:3165   */\n      dup3\n        /* \"#utility.yul\":3096:3162   */\n      0x7fffffffffffffffffffffffffffffffffffffffffffffffffffffffffffffff\n        /* \"#utility.yul\":3092:3166   */\n      add\n        /* \"#utility.yul\":3089:3090   */\n      dup3\n        /* \"#utility.yul\":3085:3167   */\n      sgt\n        /* \"#utility.yul\":3081:3082   */\n      0x00\n        /* \"#utility.yul\":3078:3079   */\n      dup5\n        /* \"#utility.yul\":3074:3083   */\n      slt\n        /* \"#utility.yul\":3070:3168   */\n      and\n        /* \"#utility.yul\":3067:3191   */\n      iszero\n      tag_84\n      jumpi\n        /* \"#utility.yul\":3171:3189   */\n      tag_85\n      tag_50\n      jump\t// in\n    tag_85:\n        /* \"#utility.yul\":3067:3191   */\n    tag_84:\n        /* \"#utility.yul\":3216:3217   */\n      dup3\n        /* \"#utility.yul\":3213:3214   */\n      dup3\n        /* \"#utility.yul\":3209:3218   */\n      sub\n        /* \"#utility.yul\":3201:3218   */\n      swap1\n      pop\n        /* \"#utility.yul\":2697:3224   */\n      swap3\n      swap2\n      pop\n      pop\n      jump\t// out\n        /* \"#utility.yul\":3230:3410   */\n    tag_33:\n        /* \"#utility.yul\":3278:3355   */\n      0x4e487b7100000000000000000000000000000000000000000000000000000000\n        /* \"#utility.yul\":3275:3276   */\n      0x00\n        /* \"#utility.yul\":3268:3356   */\n      mstore\n        /* \"#utility.yul\":3375:3379   */\n      0x01\n        /* \"#utility.yul\":3372:3373   */\n      0x04\n        /* \"#utility.yul\":3365:3380   */\n      mstore\n        /* \"#utility.yul\":3399:3403   */\n      0x24\n        /* \"#utility.yul\":3396:3397   */\n      0x00\n        /* \"#utility.yul\":3389:3404   */\n      revert\n        /* \"#utility.yul\":3416:3638   */\n    tag_51:\n        /* \"#utility.yul\":3556:3590   */\n      0x596f75206861766520746f206465706f736974206174206c6561737420313020\n        /* \"#utility.yul\":3552:3553   */\n      0x00\n        /* \"#utility.yul\":3544:3550   */\n      dup3\n        /* \"#utility.yul\":3540:3554   */\n      add\n        /* \"#utility.yul\":3533:3591   */\n      mstore\n        /* \"#utility.yul\":3625:3630   */\n      0x7765690000000000000000000000000000000000000000000000000000000000\n        /* \"#utility.yul\":3620:3622   */\n      0x20\n        /* \"#utility.yul\":3612:3618   */\n      dup3\n        /* \"#utility.yul\":3608:3623   */\n      add\n        /* \"#utility.yul\":3601:3631   */\n      mstore\n        /* \"#utility.yul\":3416:3638   */\n      pop\n      jump\t// out\n        /* \"#utility.yul\":3644:4010   */\n    tag_52:\n        /* \"#utility.yul\":3786:3789   */\n      0x00\n        /* \"#utility.yul\":3807:3874   */\n      tag_89\n        /* \"#utility.yul\":3871:3873   */\n      0x23\n        /* \"#utility.yul\":3866:3869   */\n      dup4\n        /* \"#utility.yul\":3807:3874   */\n      tag_47\n      jump\t// in\n    tag_89:\n        /* \"#utility.yul\":3800:3874   */\n      swap2\n      pop\n        /* \"#utility.yul\":3883:3976   */\n      tag_90\n        /* \"#utility.yul\":3972:3975   */\n      dup3\n        /* \"#utility.yul\":3883:3976   */\n      tag_51\n      jump\t// in\n    tag_90:\n        /* \"#utility.yul\":4001:4003   */\n      0x40\n        /* \"#utility.yul\":3996:3999   */\n      dup3\n        /* \"#utility.yul\":3992:4004   */\n      add\n        /* \"#utility.yul\":3985:4004   */\n      swap1\n      pop\n        /* \"#utility.yul\":3644:4010   */\n      swap2\n      swap1\n      pop\n      jump\t// out\n        /* \"#utility.yul\":4016:4435   */\n    tag_37:\n        /* \"#utility.yul\":4182:4186   */\n      0x00\n        /* \"#utility.yul\":4220:4222   */\n      0x20\n        /* \"#utility.yul\":4209:4218   */\n      dup3\n        /* \"#utility.yul\":4205:4223   */\n      add\n        /* \"#utility.yul\":4197:4223   */\n      swap1\n      pop\n        /* \"#utility.yul\":4269:4278   */\n      dup2\n        /* \"#utility.yul\":4263:4267   */\n      dup2\n        /* \"#utility.yul\":4259:4279   */\n      sub\n        /* \"#utility.yul\":4255:4256   */\n      0x00\n        /* \"#utility.yul\":4244:4253   */\n      dup4\n        /* \"#utility.yul\":4240:4257   */\n      add\n        /* \"#utility.yul\":4233:4280   */\n      mstore\n        /* \"#utility.yul\":4297:4428   */\n      tag_92\n        /* \"#utility.yul\":4423:4427   */\n      dup2\n        /* \"#utility.yul\":4297:4428   */\n      tag_52\n      jump\t// in\n    tag_92:\n        /* \"#utility.yul\":4289:4428   */\n      swap1\n      pop\n        /* \"#utility.yul\":4016:4435   */\n      swap2\n      swap1\n      pop\n      jump\t// out\n        /* \"#utility.yul\":4441:4966   */\n    tag_39:\n        /* \"#utility.yul\":4480:4483   */\n      0x00\n        /* \"#utility.yul\":4499:4518   */\n      tag_94\n        /* \"#utility.yul\":4516:4517   */\n      dup3\n        /* \"#utility.yul\":4499:4518   */\n      tag_43\n      jump\t// in\n    tag_94:\n        /* \"#utility.yul\":4494:4518   */\n      swap2\n      pop\n        /* \"#utility.yul\":4532:4551   */\n      tag_95\n        /* \"#utility.yul\":4549:4550   */\n      dup4\n        /* \"#utility.yul\":4532:4551   */\n      tag_43\n      jump\t// in\n    tag_95:\n        /* \"#utility.yul\":4527:4551   */\n      swap3\n      pop\n        /* \"#utility.yul\":4720:4721   */\n      dup2\n        /* \"#utility.yul\":4652:4718   */\n      0x7fffffffffffffffffffffffffffffffffffffffffffffffffffffffffffffff\n        /* \"#utility.yul\":4648:4722   */\n      sub\n        /* \"#utility.yul\":4645:4646   */\n      dup4\n        /* \"#utility.yul\":4641:4723   */\n      sgt\n        /* \"#utility.yul\":4636:4637   */\n      0x00\n        /* \"#utility.yul\":4633:4634   */\n      dup4\n        /* \"#utility.yul\":4629:4638   */\n      slt\n        /* \"#utility.yul\":4622:4639   */\n      iszero\n        /* \"#utility.yul\":4618:4724   */\n      and\n        /* \"#utility.yul\":4615:4747   */\n      iszero\n      tag_96\n      jumpi\n        /* \"#utility.yul\":4727:4745   */\n      tag_97\n      tag_50\n      jump\t// in\n    tag_97:\n        /* \"#utility.yul\":4615:4747   */\n    tag_96:\n        /* \"#utility.yul\":4907:4908   */\n      dup2\n        /* \"#utility.yul\":4839:4905   */\n      0x8000000000000000000000000000000000000000000000000000000000000000\n        /* \"#utility.yul\":4835:4909   */\n      sub\n        /* \"#utility.yul\":4832:4833   */\n      dup4\n        /* \"#utility.yul\":4828:4910   */\n      slt\n        /* \"#utility.yul\":4824:4825   */\n      0x00\n        /* \"#utility.yul\":4821:4822   */\n      dup4\n        /* \"#utility.yul\":4817:4826   */\n      slt\n        /* \"#utility.yul\":4813:4911   */\n      and\n        /* \"#utility.yul\":4810:4934   */\n      iszero\n      tag_98\n      jumpi\n        /* \"#utility.yul\":4914:4932   */\n      tag_99\n      tag_50\n      jump\t// in\n    tag_99:\n        /* \"#utility.yul\":4810:4934   */\n    tag_98:\n        /* \"#utility.yul\":4958:4959   */\n      dup3\n        /* \"#utility.yul\":4955:4956   */\n      dup3\n        /* \"#utility.yul\":4951:4960   */\n      add\n        /* \"#utility.yul\":4944:4960   */\n      swap1\n      pop\n        /* \"#utility.yul\":4441:4966   */\n      swap3\n      swap2\n      pop\n      pop\n      jump\t// out\n\n    auxdata: 0xa26469706673582212201c0ecf09c590592c00df2634d42528345771c02468eacd11ceb35db244053e6d64736f6c63430008090033\n}\n",
				"bytecode": {
					"linkReferences": {},
					"object": "60806040526000805534801561001457600080fd5b5061053d806100246000396000f3fe608060405234801561001057600080fd5b506004361061004c5760003560e01c80637e62eab814610051578063b69ef8a814610081578063ee6abcd51461009f578063f04991f0146100bd575b600080fd5b61006b6004803603810190610066919061021b565b6100ed565b6040516100789190610257565b60405180910390f35b610089610156565b6040516100969190610257565b60405180910390f35b6100a761015c565b6040516100b49190610257565b60405180910390f35b6100d760048036038101906100d2919061021b565b610179565b6040516100e49190610257565b60405180910390f35b6000816000541215610134576040517f08c379a000000000000000000000000000000000000000000000000000000000815260040161012b906102cf565b60405180910390fd5b81600080828254610145919061031e565b925050819055506000549050919050565b60005481565b6000806000541215610171576101706103b2565b5b600054905090565b6000600a82136101be576040517f08c379a00000000000000000000000000000000000000000000000000000000081526004016101b590610453565b60405180910390fd5b816000808282546101cf9190610473565b925050819055506000549050919050565b600080fd5b6000819050919050565b6101f8816101e5565b811461020357600080fd5b50565b600081359050610215816101ef565b92915050565b600060208284031215610231576102306101e0565b5b600061023f84828501610206565b91505092915050565b610251816101e5565b82525050565b600060208201905061026c6000830184610248565b92915050565b600082825260208201905092915050565b7f496e73756666696369656e742062616c616e6365000000000000000000000000600082015250565b60006102b9601483610272565b91506102c482610283565b602082019050919050565b600060208201905081810360008301526102e8816102ac565b9050919050565b7f4e487b7100000000000000000000000000000000000000000000000000000000600052601160045260246000fd5b6000610329826101e5565b9150610334836101e5565b9250827f80000000000000000000000000000000000000000000000000000000000000000182126000841215161561036f5761036e6102ef565b5b827f7fffffffffffffffffffffffffffffffffffffffffffffffffffffffffffffff0182136000841216156103a7576103a66102ef565b5b828203905092915050565b7f4e487b7100000000000000000000000000000000000000000000000000000000600052600160045260246000fd5b7f596f75206861766520746f206465706f736974206174206c656173742031302060008201527f7765690000000000000000000000000000000000000000000000000000000000602082015250565b600061043d602383610272565b9150610448826103e1565b604082019050919050565b6000602082019050818103600083015261046c81610430565b9050919050565b600061047e826101e5565b9150610489836101e5565b9250817f7fffffffffffffffffffffffffffffffffffffffffffffffffffffffffffffff038313600083121516156104c4576104c36102ef565b5b817f80000000000000000000000000000000000000000000000000000000000000000383126000831216156104fc576104fb6102ef565b5b82820190509291505056fea26469706673582212201c0ecf09c590592c00df2634d42528345771c02468eacd11ceb35db244053e6d64736f6c63430008090033",
					"opcodes": "PUSH1 0x80 PUSH1 0x40 MSTORE PUSH1 0x0 DUP1 SSTORE CALLVALUE DUP1 ISZERO PUSH2 0x14 JUMPI PUSH1 0x0 DUP1 REVERT JUMPDEST POP PUSH2 0x53D DUP1 PUSH2 0x24 PUSH1 0x0 CODECOPY PUSH1 0x0 RETURN INVALID PUSH1 0x80 PUSH1 0x40 MSTORE CALLVALUE DUP1 ISZERO PUSH2 0x10 JUMPI PUSH1 0x0 DUP1 REVERT JUMPDEST POP PUSH1 0x4 CALLDATASIZE LT PUSH2 0x4C JUMPI PUSH1 0x0 CALLDATALOAD PUSH1 0xE0 SHR DUP1 PUSH4 0x7E62EAB8 EQ PUSH2 0x51 JUMPI DUP1 PUSH4 0xB69EF8A8 EQ PUSH2 0x81 JUMPI DUP1 PUSH4 0xEE6ABCD5 EQ PUSH2 0x9F JUMPI DUP1 PUSH4 0xF04991F0 EQ PUSH2 0xBD JUMPI JUMPDEST PUSH1 0x0 DUP1 REVERT JUMPDEST PUSH2 0x6B PUSH1 0x4 DUP1 CALLDATASIZE SUB DUP2 ADD SWAP1 PUSH2 0x66 SWAP2 SWAP1 PUSH2 0x21B JUMP JUMPDEST PUSH2 0xED JUMP JUMPDEST PUSH1 0x40 MLOAD PUSH2 0x78 SWAP2 SWAP1 PUSH2 0x257 JUMP JUMPDEST PUSH1 0x40 MLOAD DUP1 SWAP2 SUB SWAP1 RETURN JUMPDEST PUSH2 0x89 PUSH2 0x156 JUMP JUMPDEST PUSH1 0x40 MLOAD PUSH2 0x96 SWAP2 SWAP1 PUSH2 0x257 JUMP JUMPDEST PUSH1 0x40 MLOAD DUP1 SWAP2 SUB SWAP1 RETURN JUMPDEST PUSH2 0xA7 PUSH2 0x15C JUMP JUMPDEST PUSH1 0x40 MLOAD PUSH2 0xB4 SWAP2 SWAP1 PUSH2 0x257 JUMP JUMPDEST PUSH1 0x40 MLOAD DUP1 SWAP2 SUB SWAP1 RETURN JUMPDEST PUSH2 0xD7 PUSH1 0x4 DUP1 CALLDATASIZE SUB DUP2 ADD SWAP1 PUSH2 0xD2 SWAP2 SWAP1 PUSH2 0x21B JUMP JUMPDEST PUSH2 0x179 JUMP JUMPDEST PUSH1 0x40 MLOAD PUSH2 0xE4 SWAP2 SWAP1 PUSH2 0x257 JUMP JUMPDEST PUSH1 0x40 MLOAD DUP1 SWAP2 SUB SWAP1 RETURN JUMPDEST PUSH1 0x0 DUP2 PUSH1 0x0 SLOAD SLT ISZERO PUSH2 0x134 JUMPI PUSH1 0x40 MLOAD PUSH32 0x8C379A000000000000000000000000000000000000000000000000000000000 DUP2 MSTORE PUSH1 0x4 ADD PUSH2 0x12B SWAP1 PUSH2 0x2CF JUMP JUMPDEST PUSH1 0x40 MLOAD DUP1 SWAP2 SUB SWAP1 REVERT JUMPDEST DUP2 PUSH1 0x0 DUP1 DUP3 DUP3 SLOAD PUSH2 0x145 SWAP2 SWAP1 PUSH2 0x31E JUMP JUMPDEST SWAP3 POP POP DUP2 SWAP1 SSTORE POP PUSH1 0x0 SLOAD SWAP1 POP SWAP2 SWAP1 POP JUMP JUMPDEST PUSH1 0x0 SLOAD DUP2 JUMP JUMPDEST PUSH1 0x0 DUP1 PUSH1 0x0 SLOAD SLT ISZERO PUSH2 0x171 JUMPI PUSH2 0x170 PUSH2 0x3B2 JUMP JUMPDEST JUMPDEST PUSH1 0x0 SLOAD SWAP1 POP SWAP1 JUMP JUMPDEST PUSH1 0x0 PUSH1 0xA DUP3 SGT PUSH2 0x1BE JUMPI PUSH1 0x40 MLOAD PUSH32 0x8C379A000000000000000000000000000000000000000000000000000000000 DUP2 MSTORE PUSH1 0x4 ADD PUSH2 0x1B5 SWAP1 PUSH2 0x453 JUMP JUMPDEST PUSH1 0x40 MLOAD DUP1 SWAP2 SUB SWAP1 REVERT JUMPDEST DUP2 PUSH1 0x0 DUP1 DUP3 DUP3 SLOAD PUSH2 0x1CF SWAP2 SWAP1 PUSH2 0x473 JUMP JUMPDEST SWAP3 POP POP DUP2 SWAP1 SSTORE POP PUSH1 0x0 SLOAD SWAP1 POP SWAP2 SWAP1 POP JUMP JUMPDEST PUSH1 0x0 DUP1 REVERT JUMPDEST PUSH1 0x0 DUP2 SWAP1 POP SWAP2 SWAP1 POP JUMP JUMPDEST PUSH2 0x1F8 DUP2 PUSH2 0x1E5 JUMP JUMPDEST DUP2 EQ PUSH2 0x203 JUMPI PUSH1 0x0 DUP1 REVERT JUMPDEST POP JUMP JUMPDEST PUSH1 0x0 DUP2 CALLDATALOAD SWAP1 POP PUSH2 0x215 DUP2 PUSH2 0x1EF JUMP JUMPDEST SWAP3 SWAP2 POP POP JUMP JUMPDEST PUSH1 0x0 PUSH1 0x20 DUP3 DUP5 SUB SLT ISZERO PUSH2 0x231 JUMPI PUSH2 0x230 PUSH2 0x1E0 JUMP JUMPDEST JUMPDEST PUSH1 0x0 PUSH2 0x23F DUP5 DUP3 DUP6 ADD PUSH2 0x206 JUMP JUMPDEST SWAP2 POP POP SWAP3 SWAP2 POP POP JUMP JUMPDEST PUSH2 0x251 DUP2 PUSH2 0x1E5 JUMP JUMPDEST DUP3 MSTORE POP POP JUMP JUMPDEST PUSH1 0x0 PUSH1 0x20 DUP3 ADD SWAP1 POP PUSH2 0x26C PUSH1 0x0 DUP4 ADD DUP5 PUSH2 0x248 JUMP JUMPDEST SWAP3 SWAP2 POP POP JUMP JUMPDEST PUSH1 0x0 DUP3 DUP3 MSTORE PUSH1 0x20 DUP3 ADD SWAP1 POP SWAP3 SWAP2 POP POP JUMP JUMPDEST PUSH32 0x496E73756666696369656E742062616C616E6365000000000000000000000000 PUSH1 0x0 DUP3 ADD MSTORE POP JUMP JUMPDEST PUSH1 0x0 PUSH2 0x2B9 PUSH1 0x14 DUP4 PUSH2 0x272 JUMP JUMPDEST SWAP2 POP PUSH2 0x2C4 DUP3 PUSH2 0x283 JUMP JUMPDEST PUSH1 0x20 DUP3 ADD SWAP1 POP SWAP2 SWAP1 POP JUMP JUMPDEST PUSH1 0x0 PUSH1 0x20 DUP3 ADD SWAP1 POP DUP2 DUP2 SUB PUSH1 0x0 DUP4 ADD MSTORE PUSH2 0x2E8 DUP2 PUSH2 0x2AC JUMP JUMPDEST SWAP1 POP SWAP2 SWAP1 POP JUMP JUMPDEST PUSH32 0x4E487B7100000000000000000000000000000000000000000000000000000000 PUSH1 0x0 MSTORE PUSH1 0x11 PUSH1 0x4 MSTORE PUSH1 0x24 PUSH1 0x0 REVERT JUMPDEST PUSH1 0x0 PUSH2 0x329 DUP3 PUSH2 0x1E5 JUMP JUMPDEST SWAP2 POP PUSH2 0x334 DUP4 PUSH2 0x1E5 JUMP JUMPDEST SWAP3 POP DUP3 PUSH32 0x8000000000000000000000000000000000000000000000000000000000000000 ADD DUP3 SLT PUSH1 0x0 DUP5 SLT ISZERO AND ISZERO PUSH2 0x36F JUMPI PUSH2 0x36E PUSH2 0x2EF JUMP JUMPDEST JUMPDEST DUP3 PUSH32 0x7FFFFFFFFFFFFFFFFFFFFFFFFFFFFFFFFFFFFFFFFFFFFFFFFFFFFFFFFFFFFFFF ADD DUP3 SGT PUSH1 0x0 DUP5 SLT AND ISZERO PUSH2 0x3A7 JUMPI PUSH2 0x3A6 PUSH2 0x2EF JUMP JUMPDEST JUMPDEST DUP3 DUP3 SUB SWAP1 POP SWAP3 SWAP2 POP POP JUMP JUMPDEST PUSH32 0x4E487B7100000000000000000000000000000000000000000000000000000000 PUSH1 0x0 MSTORE PUSH1 0x1 PUSH1 0x4 MSTORE PUSH1 0x24 PUSH1 0x0 REVERT JUMPDEST PUSH32 0x596F75206861766520746F206465706F736974206174206C6561737420313020 PUSH1 0x0 DUP3 ADD MSTORE PUSH32 0x7765690000000000000000000000000000000000000000000000000000000000 PUSH1 0x20 DUP3 ADD MSTORE POP JUMP JUMPDEST PUSH1 0x0 PUSH2 0x43D PUSH1 0x23 DUP4 PUSH2 0x272 JUMP JUMPDEST SWAP2 POP PUSH2 0x448 DUP3 PUSH2 0x3E1 JUMP JUMPDEST PUSH1 0x40 DUP3 ADD SWAP1 POP SWAP2 SWAP1 POP JUMP JUMPDEST PUSH1 0x0 PUSH1 0x20 DUP3 ADD SWAP1 POP DUP2 DUP2 SUB PUSH1 0x0 DUP4 ADD MSTORE PUSH2 0x46C DUP2 PUSH2 0x430 JUMP JUMPDEST SWAP1 POP SWAP2 SWAP1 POP JUMP JUMPDEST PUSH1 0x0 PUSH2 0x47E DUP3 PUSH2 0x1E5 JUMP JUMPDEST SWAP2 POP PUSH2 0x489 DUP4 PUSH2 0x1E5 JUMP JUMPDEST SWAP3 POP DUP2 PUSH32 0x7FFFFFFFFFFFFFFFFFFFFFFFFFFFFFFFFFFFFFFFFFFFFFFFFFFFFFFFFFFFFFFF SUB DUP4 SGT PUSH1 0x0 DUP4 SLT ISZERO AND ISZERO PUSH2 0x4C4 JUMPI PUSH2 0x4C3 PUSH2 0x2EF JUMP JUMPDEST JUMPDEST DUP2 PUSH32 0x8000000000000000000000000000000000000000000000000000000000000000 SUB DUP4 SLT PUSH1 0x0 DUP4 SLT AND ISZERO PUSH2 0x4FC JUMPI PUSH2 0x4FB PUSH2 0x2EF JUMP JUMPDEST JUMPDEST DUP3 DUP3 ADD SWAP1 POP SWAP3 SWAP2 POP POP JUMP INVALID LOG2 PUSH5 0x6970667358 0x22 SLT KECCAK256 SHR 0xE 0xCF MULMOD 0xC5 SWAP1 MSIZE 0x2C STOP 0xDF 0x26 CALLVALUE 0xD4 0x25 0x28 CALLVALUE JUMPI PUSH18 0xC02468EACD11CEB35DB244053E6D64736F6C PUSH4 0x43000809 STOP CALLER "
				},
				"gasEstimates": {
					"creation": {
						"codeDepositCost": "268200",
						"executionCost": "5312",
						"totalCost": "273512"
					},
					"external": {
						"balance()": "2429",
						"checkBalanceInvariant()": "4585",
						"deposit(int256)": "infinite",
						"withdraw(int256)": "infinite"
					}
				},
				"methodIdentifiers": {
					"balance()": "b69ef8a8",
					"checkBalanceInvariant()": "ee6abcd5",
					"deposit(int256)": "f04991f0",
					"withdraw(int256)": "7e62eab8"
				}
			},
			"storageLayout": {
				"storage": [
					{
						"astId": 4,
						"contract": "contracts/error_handling.sol:Error",
						"label": "balance",
						"offset": 0,
						"slot": "0",
						"type": "t_int256"
					}
				],
				"types": {
					"t_int256": {
						"encoding": "inplace",
						"label": "int256",
						"numberOfBytes": "32"
					}
				}
			},
			"userdoc": {
				"kind": "user",
				"methods": {},
				"version": 1
			}
		}
	}
}